:020000040000fa
:080000000002040000000000f2
:020000040000fa
:0400080036030000bb
:020000040000fa
:04000c0036030000b7
:020000040000fa
:0400100036030000b3
:020000040000fa
:0400140036030000af
:020000040000fa
:0400180036030000ab
:020000040000fa
:04001c0036030000a7
:020000040000fa
:0400200036030000a3
:020000040000fa
:04002400360300009f
:020000040000fa
:04002800360300009b
:020000040000fa
:04002c003603000097
:020000040000fa
:040030003603000093
:020000040000fa
:04003400360300008f
:020000040000fa
:04003800360300008b
:020000040000fa
:04003c003603000087
:020000040000fa
:040040003603000083
:020000040000fa
:04004400fa020000bc
:020000040000fa
:04004800360300007b
:020000040000fa
:04004c003603000077
:020000040000fa
:040050003603000073
:020000040000fa
:04005400360300006f
:020000040000fa
:04005800360300006b
:020000040000fa
:04005c003603000067
:020000040000fa
:040060003603000063
:020000040000fa
:04006400360300005f
:020000040000fa
:04006800360300005b
:020000040000fa
:04006c003603000057
:020000040000fa
:040070003603000053
:020000040000fa
:04007400360300004f
:020000040000fa
:04007800360300004b
:020000040000fa
:04007c003603000047
:020000040000fa
:040080003603000043
:020000040000fa
:04008400360300003f
:020000040000fa
:04008800360300003b
:020000040000fa
:04008c003603000037
:020000040000fa
:040090003603000033
:020000040000fa
:04009400360300002f
:020000040000fa
:04009800360300002b
:020000040000fa
:04009c003603000027
:020000040000fa
:0400a0003603000023
:020000040000fa
:0400a400360300001f
:020000040000fa
:0400a800360300001b
:020000040000fa
:0400ac003603000017
:020000040000fa
:0400b0003603000013
:020000040000fa
:0400b400360300000f
:020000040000fa
:0400b800360300000b
:020000040000fa
:0400bc003603000007
:020000040000fa
:0400c0003603000003
:020000040000fa
:0400c40036030000ff
:020000040000fa
:0400c80036030000fb
:020000040000fa
:0400cc0036030000f7
:020000040000fa
:0400d00036030000f3
:020000040000fa
:0400d40036030000ef
:020000040000fa
:0400d80036030000eb
:020000040000fa
:0400dc0036030000e7
:020000040000fa
:0400e00036030000e3
:020000040000fa
:0400e40036030000df
:020000040000fa
:0400e80036030000db
:020000040000fa
:0400ec0036030000d7
:020000040000fa
:0400f00036030000d3
:020000040000fa
:0400f40036030000cf
:020000040000fa
:0400f80036030000cb
:020000040000fa
:0400fc0036030000c7
:020000040000fa
:0401000036030000c2
:020000040000fa
:0401040036030000be
:020000040000fa
:0401080036030000ba
:020000040000fa
:04010c0036030000b6
:020000040000fa
:0401100036030000b2
:020000040000fa
:0401140036030000ae
:020000040000fa
:0401180036030000aa
:020000040000fa
:04011c0036030000a6
:020000040000fa
:0401200036030000a2
:020000040000fa
:04012400360300009e
:020000040000fa
:04012800360300009a
:020000040000fa
:04012c003603000096
:020000040000fa
:040130003603000092
:020000040000fa
:04013400360300008e
:020000040000fa
:04013800360300008a
:020000040000fa
:04013c003603000086
:020000040000fa
:040140003603000082
:020000040000fa
:04014400360300007e
:020000040000fa
:04014800360300007a
:020000040000fa
:04014c003603000076
:020000040000fa
:040150003603000072
:020000040000fa
:04015400360300006e
:020000040000fa
:04015800360300006a
:020000040000fa
:04015c003603000066
:020000040000fa
:040160003603000062
:020000040000fa
:04016400360300005e
:020000040000fa
:04016800360300005a
:020000040000fa
:04016c003603000056
:020000040000fa
:040170003603000052
:020000040000fa
:04017400360300004e
:020000040000fa
:04017800360300004a
:020000040000fa
:04017c003603000046
:020000040000fa
:040180003603000042
:020000040000fa
:04018400360300003e
:020000040000fa
:04018800360300003a
:020000040000fa
:04018c003603000036
:020000040000fa
:040190003603000032
:020000040000fa
:04019400360300002e
:020000040000fa
:04019800360300002a
:020000040000fa
:04019c003603000026
:020000040000fa
:0401a0003603000022
:020000040000fa
:0401a400360300001e
:020000040000fa
:0401a800360300001a
:020000040000fa
:0401ac003603000016
:020000040000fa
:0401b0003603000012
:020000040000fa
:0401b400360300000e
:020000040000fa
:0401b800360300000a
:020000040000fa
:0401bc003603000006
:020000040000fa
:0401c0003603000002
:020000040000fa
:0401c40036030000fe
:020000040000fa
:0401c80036030000fa
:020000040000fa
:0401cc0036030000f6
:020000040000fa
:0401d00036030000f2
:020000040000fa
:0401d40036030000ee
:020000040000fa
:0401d80036030000ea
:020000040000fa
:0401dc0036030000e6
:020000040000fa
:0401e00036030000e2
:020000040000fa
:0401e40036030000de
:020000040000fa
:0401e80036030000da
:020000040000fa
:0401ec0036030000d6
:020000040000fa
:0401f00036030000d2
:020000040000fa
:0401f40036030000ce
:020000040000fa
:0401f80036030000ca
:020000040000fa
:0401fc0036030000c6
:020000040000fa
:0402000036030000c1
:020000040000fa
:0402040036030000bd
:020000040000fa
:0402080036030000b9
:020000040000fa
:04020c0036030000b5
:020000040000fa
:0402100036030000b1
:020000040000fa
:0402140036030000ad
:020000040000fa
:0402180036030000a9
:020000040000fa
:04021c0036030000a5
:020000040000fa
:0402200036030000a1
:020000040000fa
:04022400360300009d
:020000040000fa
:040228003603000099
:020000040000fa
:04022c003603000095
:020000040000fa
:040230003603000091
:020000040000fa
:04023400360300008d
:020000040000fa
:040238003603000089
:020000040000fa
:04023c003603000085
:020000040000fa
:040240003603000081
:020000040000fa
:04024400360300007d
:020000040000fa
:040248003603000079
:020000040000fa
:04024c003603000075
:020000040000fa
:040250003603000071
:020000040000fa
:04025400360300006d
:020000040000fa
:040258003603000069
:020000040000fa
:04025c003603000065
:020000040000fa
:040260003603000061
:020000040000fa
:04026400360300005d
:020000040000fa
:100400000f0021000eff27000e01880000000000f1
:10041000000020000000e000020032000001200087
:100420002002880014000700920007000000e0008e
:1004300003003a0000002000010020000200370005
:100440000000200001002000810f70000100320038
:100450000f000700000020000000e0000200320052
:100460000000020000000000e8040200000000009c
:100470000040da000000fe00200020000000e00044
:1004800002003200100020009001880000000600e9
:10049000a1028800800478000000eb001f003700f4
:1004a000e284440054a0b4009905ba00e2844400f8
:1004b00054a0b4009906ba00e284440054a0b400e9
:1004c0000006eb00476fde00fd07b200ae018800ba
:1004d000636ce10003003a000ad801000000eb0061
:1004e0000e003700606ce10008003a00004deb00a0
:1004f0000a05e800020039003420ec000af0a000f0
:100500008b05e900f9ff3e00040037006168e10057
:10051000010032000086eb000b00070019c7ba008b
:100520000e04e0001905ba0003003a000a00e000da
:10053000dbff3a0000000600fe07b200ae028800b2
:100540008a047800f5ff37000cd0a300e20f4d00bd
:100550001c003b0089027800354dba000a05e8000e
:10056000020039003420ec000af0a0008b05e900fd
:100570000f003200254dba000a05e80002003900dc
:100580003420ec000af0a0008b05e90008003200de
:100590000c00e0000600320015cdba000a05e800a4
:1005a000020039003420ec000af0a0008b05e900bd
:1005b0008984e80054a0b4000b00e000e2ff3a0098
:1005c000000006009902ba00055d78008b05e9007d
:1005d000f7ff3200c82ade00055d78008b05e900d0
:1005e000f3ff32000c00e000f1ff320019ddba0029
:1005f000eeff3700809fbe003200f8003400f800a4
:1006000010002000a00188001000200000d0fe0093
:100610000000fa000621ef0000e8a9002173800025
:10062000002020000080600000f0a7000000ea0029
:100630000000e9004f00de00004078000080fb0071
:10064000610060004900dd00217380000190a1007d
:1006500001007000207388000080fa003400f90067
:100660003200f9004f00be00004006000040da00f2
:100670000000fe0000000500839f68000100e0000c
:1006800002003d0060001000e08018000300e00060
:1006900002003d0060011100e08119000500070023
:1006a0004f00e00002003b0060001000e0801800f6
:1006b000000006006022b800060220000000d00002
:1006c0008180d2000482d2008582d2000000a00086
:1006d0000202520083825a000300310002024200eb
:1006e00083824a000000a1000603e900f3ff3a00fc
:0406f0000000060000
:020000040000fa
:1006f4002000fa00600f9800710f9800100020008d
:10070400200f980080002000300f98000004200083
:10071400400f980000102000500f980000202a007d
:10072400a14420005007980061079800813e2000f2
:100734007e08900000017800110009008200d800b2
:10074400700798000080eb00000f78000080eb0039
:100754008080eb00000f9800110f98000000eb0060
:1007640040079800210037004e0090000000400030
:10077400740040006e007800fe00900000017800d4
:10078400110009008200d800cf80de000001be0005
:100794005e009000ee009000b6ff0700000f980086
:1007a400110f98000e0990009e099000e0ff2f00a1
:1007b40001002000800f5100818f590008003c0087
:1007c4008e089000010f78004e0090000000400059
:1007d400740040006e01780012079800060037008c
:1007e4004e0090000000e800400798004e00900082
:1007f400e30f5000dcff34009e0090000010200046
:10080400808f500004003a00100020002007980058
:1008140010002000300798009e0090000004200083
:10082400808f500004003a00100020002007980038
:100834000000eb00300798001e009000e80f500005
:1008440004003a000000eb0020079800100020008c
:10085400300798001e009000e10f500004003a0099
:100864000000eb00200798000000eb003007980020
:100874006e089000e10f500003003200e20f5000b8
:100884001b003200340037000421a9002e00900020
:1008940000407800614060000080fb00610060005f
:1008a4004400dd00210880000140a1000100700027
:1008b400200888003e0090000040780061406000fd
:1008c4000080fb00610060004500dd00210880001d
:1008d4000150a10001007000200888001e0078006b
:1008e4001008880005e1a8000068a9001a00370074
:1008f4001021a9002e0090000040780061406000a3
:100904000080fb00610060004400dd00810880007d
:100914000140a10001007000800888003e009000a2
:1009240000407800614060000080fb0061006000ce
:100934004500dd00810880000150a1000100700025
:10094400800888001e0078006008880011e1a80073
:1009540000e8a900000000000080fa000000060082
:100964000200fa00000f78001e007800e10f50002a
:1009740004003200e20f50000a0032001100370078
:100984000000000000408000680060000000e000fb
:10099400fbff32000068a9000021ef0009003700c6
:1009a400000000000140800000082000008060007a
:1009b4000000e000faff320000e8a9000621ef0081
:1009c400000000000080fa00000006000400fa00a5
:1009d4006e2eef0070738000707288007072800059
:1009e400f0718800f071800070718800707180006f
:1009f400f0708800f070800070708800000ea9000c
:100a0400612ea9000000eb00000f78000000eb004d
:100a140010079800810c20001000200034ff07000c
:100a2400410620002000200031ff070020e8a80034
:100a34001e00780000407800614060000080fb00e8
:100a440061006000217080000100a10001007000bd
:100a540020708800652ea90010002000c0ff070048
:100a640020002000beff07001e00780000f0a70051
:100a74000000ea00000fe9001e0078004f00de00cd
:080a8400000f7800eaff3700c3
:00000001FF
